:100000000C945E000C9486000C9486000C94860080
:100010000C9486000C9486000C9486000C94860048
:100020000C9486000C9486000C9486000C94860038
:100030000C9486000C9486000C9486000C94860028
:100040000C9464010C9486000C9486000C94860039
:100050000C9486000C9486000C9486000C94860008
:100060000C9486000C948600000000080002010039
:100070000003040700000000000000000000000072
:10008000250028002B0000000000240027002A0083
:10009000040404040404040402020202020203032E
:1000A0000303030301020408102040800102040836
:1000B0001020010204081020B202E70211241FBE22
:1000C000CFEFD8E0DEBFCDBF21E0A6E0B1E001C0B8
:1000D0001D92A332B207E1F711E0A0E0B1E0E2EB3C
:1000E000F8E002C005900D92A630B107D9F710E0F4
:1000F000CDE5D0E004C02197FE010E941903CC3564
:10010000D107C9F70E94AE010C944C040C94000076
:100110003FB7F89480910B0190910C01A0910D01D3
:10012000B0910E0126B5A89B05C02F3F19F001968E
:10013000A11DB11D3FBFBA2FA92F982F8827820F6D
:10014000911DA11DB11DBC01CD0142E0660F771FBD
:10015000881F991F4A95D1F708950F931F93CF9346
:10016000DF93CDB7DEB729970FB6F894DEBF0FBE89
:10017000CDBF0E94880000911801109119012091B3
:100180001A0130911B01DC01CB01801B910BA20BEA
:10019000B30BC297A105B10560F3F89480911101EA
:1001A000909112019A838983E0911601F0911701D1
:1001B000DF0111968081898790911301E0911C01E4
:1001C000F0911D0180911E0191FF2EC09081982B0E
:1001D00098879081809589238F838F818C8388E095
:1001E0008B8358856F8149853B812C8189819A81D8
:1001F000508347FD252F3A952083262F39F0441F41
:1002000000C000006083000000C0F2CF38E04D91D4
:1002100060830000019761F7F0931D01E0931C01DA
:1002200049873B832C8338C09081982B9887908195
:10023000809589238F838F818E8388E08D83588575
:100240006F8149853D812E8189819A81508347FD47
:10025000252F00C000C0208300C000C000C000C027
:1002600000C060830000262F3A9541F0441F000033
:1002700000C000C000C000C000C0E8CF38E04D9111
:1002800000C0608300C0019709F7F0931D01E0935F
:100290001C0149873D832E839A83898378940E9429
:1002A0008800609318017093190180931A0190934C
:1002B0001B0129960FB6F894DEBF0FBECDBFDF91AC
:1002C000CF911F910F9108951F920F920FB60F9229
:1002D00011242F933F938F939F93AF93BF9380915C
:1002E000070190910801A0910901B0910A01309194
:1002F000060123E0230F2D3720F40196A11DB11D27
:1003000005C026E8230F0296A11DB11D209306010A
:100310008093070190930801A0930901B0930A010B
:1003200080910B0190910C01A0910D01B0910E01F3
:100330000196A11DB11D80930B0190930C01A09318
:100340000D01B0930E01BF91AF919F918F913F919D
:100350002F910F900FBE0F901F901895789484B531
:10036000826084BD84B5816084BD85B5826085BDB1
:1003700085B5816085BD80916E00816080936E003F
:100380001092810080918100826080938100809131
:1003900081008160809381008091800081608093E2
:1003A00080008091B10084608093B1008091B000A2
:1003B00081608093B00080917A00846080937A009D
:1003C00080917A00826080937A0080917A008160C7
:1003D00080937A0080917A00806880937A001092EE
:1003E000C1008091140190E0FC01EC55FF4F249175
:1003F000FC01E057FF4F8491882399F090E0880F2B
:10040000991FFC01EA57FF4FA591B491FC01E458F4
:10041000FF4F859194918FB7F894EC91E22BEC9378
:100420008FBF8091140190E0FC01E859FF4F2491A7
:10043000FC01EC55FF4F3491FC01E057FF4FE49174
:10044000EE23B9F1222339F1233091F038F4213031
:10045000A9F0223001F584B58F7D12C0273091F0CC
:100460002830A1F02430B9F4809180008F7D03C042
:10047000809180008F77809380000DC084B58F7746
:1004800084BD09C08091B0008F7703C08091B00017
:100490008F7D8093B000F0E0EE0FFF1FE458FF4F18
:1004A000A591B4918FB7F894EC9130953E233C938D
:1004B0008FBF8091160190911701892B11F00E9436
:1004C000AD0090E0E92E90E0F92E00E010E0C0E0F1
:1004D000D0E080910F0190911001C817D907D8F58D
:1004E000E0911601F0911701E00FF11F10821182C7
:1004F00012828091160190911701892B11F00E94B0
:10050000AD000E9488002B013C0182E3882E912CD3
:10051000A12CB12C0E948800DC01CB018419950923
:10052000A609B709883E9340A105B10558F021E01E
:10053000821A9108A108B10888EE480E83E0581E7F
:10054000611C711C81149104A104B10419F7219656
:100550000D5F1F4FBECFE114F10409F4B6CF0E9426
:100560000000B3CF8CE390E09093100180930F01D3
:1005700084EB90E0909312018093110183E08093CB
:10058000130186E080931401E6E9F0E0E491F0E0E5
:10059000EE0FFF1FE458FF4F8591949190931D013A
:1005A00080931C01EAEAF0E0E491E0931E0184EB01
:1005B00090E00E941F03909317018093160100970B
:1005C00029F024EBFC0111922A95E9F70895CF93C5
:1005D000DF938091160190911701009711F00E940E
:1005E000B4038091140190E0FC01EC55FF4F24917D
:1005F000FC01E057FF4F84918823C1F090E0880F01
:10060000991FFC01EA57FF4FC591D491FC01E458B2
:10061000FF4FA591B4919FB7F8948881E22FE095A0
:100620008E2388838C91E823EC939FBFDF91CF9139
:100630000895EE0FFF1F0590F491E02D0994CF93DC
:10064000DF938230910510F482E090E0E091210187
:10065000F091220120E030E0C0E0D0E0309711F1CD
:100660004081518148175907C0F04817590761F474
:1006700082819381209719F09B838A832BC090936A
:1006800022018093210126C02115310519F042175E
:10069000530718F49A01BE01DF01EF010280F381D4
:1006A000E02DDCCF2115310509F1281B390B243051
:1006B000310590F412968D919C91139761157105F7
:1006C00021F0FB019383828304C0909322018093E5
:1006D0002101FD01329644C0FD01E20FF31F819319
:1006E0009193225031092D933C933AC020911F01E0
:1006F00030912001232B41F420910201309103011C
:100700003093200120931F012091000130910101BD
:100710002115310541F42DB73EB7409104015091A8
:100720000501241B350BE0911F01F0912001E21718
:10073000F307A0F42E1B3F0B2817390778F0AC0104
:100740004E5F5F4F2417350748F04E0F5F1F5093E1
:10075000200140931F018193919302C0E0E0F0E0FB
:10076000CF01DF91CF9108950F931F93CF93DF9324
:10077000009709F48CC0FC01329713821282009119
:100780002101109122010115110581F4208131818F
:10079000820F931F20911F013091200128173907E4
:1007A00079F5F0932001E0931F0171C0D80140E07A
:1007B00050E0AE17BF0750F412962D913C9113975D
:1007C000AD012115310509F1D901F3CF9D01DA0100
:1007D0003383228360817181860F971F821793076D
:1007E00069F4EC0128813981260F371F2E5F3F4FB6
:1007F000318320838A819B8193838283452B29F4D3
:10080000F0932201E093210142C01396FC93EE93F2
:100810001297ED01499159919E01240F351FE2175E
:10082000F30771F480819181840F951F02961196D0
:100830009C938E938281938113969C938E931297AF
:10084000E0E0F0E0D80112968D919C91139700970B
:1008500019F0F8018C01F6CF8D919C9198012E5FD3
:100860003F4F820F931F20911F01309120012817C5
:10087000390769F4309729F410922201109221016E
:1008800002C0138212821093200100931F01DF9196
:10089000CF911F910F91089510E0CDE5D0E004C0F5
:1008A000FE010E9419032196CE35D107C9F7F894AD
:0208B000FFCF78
:0608B2000000230180009C
:00000001FF
